{
  "contractName": "SimpleVoting",
  "abi": [
    {
      "inputs": [],
      "name": "counter",
      "outputs": [
        {
          "internalType": "uint256",
          "name": "",
          "type": "uint256"
        }
      ],
      "stateMutability": "view",
      "type": "function"
    },
    {
      "inputs": [
        {
          "internalType": "uint256",
          "name": "",
          "type": "uint256"
        },
        {
          "internalType": "address",
          "name": "",
          "type": "address"
        }
      ],
      "name": "hasVoted",
      "outputs": [
        {
          "internalType": "bool",
          "name": "",
          "type": "bool"
        }
      ],
      "stateMutability": "view",
      "type": "function"
    },
    {
      "inputs": [
        {
          "internalType": "string",
          "name": "_question",
          "type": "string"
        },
        {
          "internalType": "string[]",
          "name": "_options",
          "type": "string[]"
        },
        {
          "internalType": "uint256",
          "name": "startTime_",
          "type": "uint256"
        },
        {
          "internalType": "uint256",
          "name": "duration_",
          "type": "uint256"
        }
      ],
      "name": "createBallot",
      "outputs": [],
      "stateMutability": "nonpayable",
      "type": "function"
    },
    {
      "inputs": [
        {
          "internalType": "uint256",
          "name": "_index",
          "type": "uint256"
        }
      ],
      "name": "getBallotByIndex",
      "outputs": [
        {
          "components": [
            {
              "internalType": "string",
              "name": "question",
              "type": "string"
            },
            {
              "internalType": "string[]",
              "name": "options",
              "type": "string[]"
            },
            {
              "internalType": "uint256",
              "name": "startTime",
              "type": "uint256"
            },
            {
              "internalType": "uint256",
              "name": "duration",
              "type": "uint256"
            }
          ],
          "internalType": "struct SimpleVoting.Ballot",
          "name": "ballot",
          "type": "tuple"
        }
      ],
      "stateMutability": "view",
      "type": "function"
    },
    {
      "inputs": [
        {
          "internalType": "uint256",
          "name": "ballotIndex_",
          "type": "uint256"
        },
        {
          "internalType": "uint256",
          "name": "optionIndex_",
          "type": "uint256"
        }
      ],
      "name": "cast",
      "outputs": [],
      "stateMutability": "nonpayable",
      "type": "function"
    },
    {
      "inputs": [
        {
          "internalType": "uint256",
          "name": "ballotIndex_",
          "type": "uint256"
        },
        {
          "internalType": "uint256",
          "name": "optionIndex_",
          "type": "uint256"
        }
      ],
      "name": "getTally",
      "outputs": [
        {
          "internalType": "uint256",
          "name": "",
          "type": "uint256"
        }
      ],
      "stateMutability": "view",
      "type": "function"
    },
    {
      "inputs": [
        {
          "internalType": "uint256",
          "name": "ballotIndex_",
          "type": "uint256"
        }
      ],
      "name": "results",
      "outputs": [
        {
          "internalType": "uint256[]",
          "name": "",
          "type": "uint256[]"
        }
      ],
      "stateMutability": "view",
      "type": "function"
    },
    {
      "inputs": [
        {
          "internalType": "uint256",
          "name": "ballotIndex_",
          "type": "uint256"
        }
      ],
      "name": "winners",
      "outputs": [
        {
          "internalType": "bool[]",
          "name": "",
          "type": "bool[]"
        }
      ],
      "stateMutability": "view",
      "type": "function"
    }
  ],
  "bytecode": "0x60806040525f8055348015610012575f80fd5b506117ed806100205f395ff3fe608060405234801561000f575f80fd5b5060043610610086575f3560e01c8063a2fb117511610059578063a2fb117514610124578063c8b3d5ac14610154578063cdae1fba14610184578063dd2d9cb2146101b457610086565b80631b0c27da1461008a57806343859632146100ba5780635396dd7a146100ea57806361bc221a14610106575b5f80fd5b6100a4600480360381019061009f9190610c31565b6101d0565b6040516100b19190610d13565b60405180910390f35b6100d460048036038101906100cf9190610d8d565b610426565b6040516100e19190610de5565b60405180910390f35b61010460048036038101906100ff9190610eb4565b610450565b005b61010e610538565b60405161011b9190610f66565b60405180910390f35b61013e60048036038101906101399190610c31565b61053d565b60405161014b9190611036565b60405180910390f35b61016e60048036038101906101699190610c31565b61088c565b60405161017b9190611202565b60405180910390f35b61019e60048036038101906101999190611222565b610a2e565b6040516101ab9190610f66565b60405180910390f35b6101ce60048036038101906101c99190611222565b610a58565b005b60605f60015f8481526020019081526020015f206040518060800160405290815f820180546101fe9061128d565b80601f016020809104026020016040519081016040528092919081815260200182805461022a9061128d565b80156102755780601f1061024c57610100808354040283529160200191610275565b820191905f5260205f20905b81548152906001019060200180831161025857829003601f168201915b5050505050815260200160018201805480602002602001604051908101604052809291908181526020015f905b8282101561034a578382905f5260205f200180546102bf9061128d565b80601f01602080910402602001604051908101604052809291908181526020018280546102eb9061128d565b80156103365780601f1061030d57610100808354040283529160200191610336565b820191905f5260205f20905b81548152906001019060200180831161031957829003601f168201915b5050505050815260200190600101906102a2565b5050505081526020016002820154815260200160038201548152505090505f81602001515190505f8167ffffffffffffffff81111561038c5761038b6112bd565b5b6040519080825280602002602001820160405280156103ba5781602001602082028036833780820191505090505b5090505f5b8281101561041a5760025f8781526020019081526020015f205f8281526020019081526020015f20548282815181106103fb576103fa6112ea565b5b602002602001018181525050808061041290611344565b9150506103bf565b50809350505050919050565b6003602052815f5260405f20602052805f5260405f205f915091509054906101000a900460ff1681565b604051806080016040528087878080601f0160208091040260200160405190810160405280939291908181526020018383808284375f81840152601f19601f8201169050808301925050505050505081526020018585906104b19190611537565b81526020018381526020018281525060015f805481526020019081526020015f205f820151815f0190816104e591906116e8565b506020820151816001019080519060200190610502929190610af5565b5060408201518160020155606082015181600301559050505f8081548092919061052b90611344565b9190505550505050505050565b5f5481565b60605f60015f8481526020019081526020015f206040518060800160405290815f8201805461056b9061128d565b80601f01602080910402602001604051908101604052809291908181526020018280546105979061128d565b80156105e25780601f106105b9576101008083540402835291602001916105e2565b820191905f5260205f20905b8154815290600101906020018083116105c557829003601f168201915b5050505050815260200160018201805480602002602001604051908101604052809291908181526020015f905b828210156106b7578382905f5260205f2001805461062c9061128d565b80601f01602080910402602001604051908101604052809291908181526020018280546106589061128d565b80156106a35780601f1061067a576101008083540402835291602001916106a3565b820191905f5260205f20905b81548152906001019060200180831161068657829003601f168201915b50505050508152602001906001019061060f565b5050505081526020016002820154815260200160038201548152505090505f81602001515190505f8167ffffffffffffffff8111156106f9576106f86112bd565b5b6040519080825280602002602001820160405280156107275781602001602082028036833780820191505090505b5090505f805f90505b838110156107cb5760025f8881526020019081526020015f205f8281526020019081526020015f205483828151811061076c5761076b6112ea565b5b6020026020010181815250508183828151811061078c5761078b6112ea565b5b602002602001015111156107b8578281815181106107ad576107ac6112ea565b5b602002602001015191505b80806107c390611344565b915050610730565b505f8367ffffffffffffffff8111156107e7576107e66112bd565b5b6040519080825280602002602001820160405280156108155781602001602082028036833780820191505090505b5090505f5b8481101561087e5782848281518110610836576108356112ea565b5b60200260200101510361086b576001828281518110610858576108576112ea565b5b6020026020010190151590811515815250505b808061087690611344565b91505061081a565b508095505050505050919050565b610894610b4c565b60015f8381526020019081526020015f206040518060800160405290815f820180546108bf9061128d565b80601f01602080910402602001604051908101604052809291908181526020018280546108eb9061128d565b80156109365780601f1061090d57610100808354040283529160200191610936565b820191905f5260205f20905b81548152906001019060200180831161091957829003601f168201915b5050505050815260200160018201805480602002602001604051908101604052809291908181526020015f905b82821015610a0b578382905f5260205f200180546109809061128d565b80601f01602080910402602001604051908101604052809291908181526020018280546109ac9061128d565b80156109f75780601f106109ce576101008083540402835291602001916109f7565b820191905f5260205f20905b8154815290600101906020018083116109da57829003601f168201915b505050505081526020019060010190610963565b505050508152602001600282015481526020016003820154815250509050919050565b5f60025f8481526020019081526020015f205f8381526020019081526020015f2054905092915050565b60025f8381526020019081526020015f205f8281526020019081526020015f205f815480929190610a8890611344565b9190505550600160035f8481526020019081526020015f205f3373ffffffffffffffffffffffffffffffffffffffff1673ffffffffffffffffffffffffffffffffffffffff1681526020019081526020015f205f6101000a81548160ff0219169083151502179055505050565b828054828255905f5260205f20908101928215610b3b579160200282015b82811115610b3a578251829081610b2a91906116e8565b5091602001919060010190610b13565b5b509050610b489190610b72565b5090565b604051806080016040528060608152602001606081526020015f81526020015f81525090565b5b80821115610b91575f8181610b889190610b95565b50600101610b73565b5090565b508054610ba19061128d565b5f825580601f10610bb25750610bcf565b601f0160209004905f5260205f2090810190610bce9190610bd2565b5b50565b5b80821115610be9575f815f905550600101610bd3565b5090565b5f604051905090565b5f80fd5b5f80fd5b5f819050919050565b610c1081610bfe565b8114610c1a575f80fd5b50565b5f81359050610c2b81610c07565b92915050565b5f60208284031215610c4657610c45610bf6565b5b5f610c5384828501610c1d565b91505092915050565b5f81519050919050565b5f82825260208201905092915050565b5f819050602082019050919050565b610c8e81610bfe565b82525050565b5f610c9f8383610c85565b60208301905092915050565b5f602082019050919050565b5f610cc182610c5c565b610ccb8185610c66565b9350610cd683610c76565b805f5b83811015610d06578151610ced8882610c94565b9750610cf883610cab565b925050600181019050610cd9565b5085935050505092915050565b5f6020820190508181035f830152610d2b8184610cb7565b905092915050565b5f73ffffffffffffffffffffffffffffffffffffffff82169050919050565b5f610d5c82610d33565b9050919050565b610d6c81610d52565b8114610d76575f80fd5b50565b5f81359050610d8781610d63565b92915050565b5f8060408385031215610da357610da2610bf6565b5b5f610db085828601610c1d565b9250506020610dc185828601610d79565b9150509250929050565b5f8115159050919050565b610ddf81610dcb565b82525050565b5f602082019050610df85f830184610dd6565b92915050565b5f80fd5b5f80fd5b5f80fd5b5f8083601f840112610e1f57610e1e610dfe565b5b8235905067ffffffffffffffff811115610e3c57610e3b610e02565b5b602083019150836001820283011115610e5857610e57610e06565b5b9250929050565b5f8083601f840112610e7457610e73610dfe565b5b8235905067ffffffffffffffff811115610e9157610e90610e02565b5b602083019150836020820283011115610ead57610eac610e06565b5b9250929050565b5f805f805f8060808789031215610ece57610ecd610bf6565b5b5f87013567ffffffffffffffff811115610eeb57610eea610bfa565b5b610ef789828a01610e0a565b9650965050602087013567ffffffffffffffff811115610f1a57610f19610bfa565b5b610f2689828a01610e5f565b94509450506040610f3989828a01610c1d565b9250506060610f4a89828a01610c1d565b9150509295509295509295565b610f6081610bfe565b82525050565b5f602082019050610f795f830184610f57565b92915050565b5f81519050919050565b5f82825260208201905092915050565b5f819050602082019050919050565b610fb181610dcb565b82525050565b5f610fc28383610fa8565b60208301905092915050565b5f602082019050919050565b5f610fe482610f7f565b610fee8185610f89565b9350610ff983610f99565b805f5b838110156110295781516110108882610fb7565b975061101b83610fce565b925050600181019050610ffc565b5085935050505092915050565b5f6020820190508181035f83015261104e8184610fda565b905092915050565b5f81519050919050565b5f82825260208201905092915050565b5f5b8381101561108d578082015181840152602081019050611072565b5f8484015250505050565b5f601f19601f8301169050919050565b5f6110b282611056565b6110bc8185611060565b93506110cc818560208601611070565b6110d581611098565b840191505092915050565b5f81519050919050565b5f82825260208201905092915050565b5f819050602082019050919050565b5f61111483836110a8565b905092915050565b5f602082019050919050565b5f611132826110e0565b61113c81856110ea565b93508360208202850161114e856110fa565b805f5b85811015611189578484038952815161116a8582611109565b94506111758361111c565b925060208a01995050600181019050611151565b50829750879550505050505092915050565b5f608083015f8301518482035f8601526111b582826110a8565b915050602083015184820360208601526111cf8282611128565b91505060408301516111e46040860182610c85565b5060608301516111f76060860182610c85565b508091505092915050565b5f6020820190508181035f83015261121a818461119b565b905092915050565b5f806040838503121561123857611237610bf6565b5b5f61124585828601610c1d565b925050602061125685828601610c1d565b9150509250929050565b7f4e487b71000000000000000000000000000000000000000000000000000000005f52602260045260245ffd5b5f60028204905060018216806112a457607f821691505b6020821081036112b7576112b6611260565b5b50919050565b7f4e487b71000000000000000000000000000000000000000000000000000000005f52604160045260245ffd5b7f4e487b71000000000000000000000000000000000000000000000000000000005f52603260045260245ffd5b7f4e487b71000000000000000000000000000000000000000000000000000000005f52601160045260245ffd5b5f61134e82610bfe565b91507fffffffffffffffffffffffffffffffffffffffffffffffffffffffffffffffff82036113805761137f611317565b5b600182019050919050565b61139482611098565b810181811067ffffffffffffffff821117156113b3576113b26112bd565b5b80604052505050565b5f6113c5610bed565b90506113d1828261138b565b919050565b5f67ffffffffffffffff8211156113f0576113ef6112bd565b5b602082029050602081019050919050565b5f80fd5b5f67ffffffffffffffff82111561141f5761141e6112bd565b5b61142882611098565b9050602081019050919050565b828183375f83830152505050565b5f61145561145084611405565b6113bc565b90508281526020810184848401111561147157611470611401565b5b61147c848285611435565b509392505050565b5f82601f83011261149857611497610dfe565b5b81356114a8848260208601611443565b91505092915050565b5f6114c36114be846113d6565b6113bc565b905080838252602082019050602084028301858111156114e6576114e5610e06565b5b835b8181101561152d57803567ffffffffffffffff81111561150b5761150a610dfe565b5b8086016115188982611484565b855260208501945050506020810190506114e8565b5050509392505050565b5f6115433684846114b1565b905092915050565b5f819050815f5260205f209050919050565b5f6020601f8301049050919050565b5f82821b905092915050565b5f600883026115a77fffffffffffffffffffffffffffffffffffffffffffffffffffffffffffffffff8261156c565b6115b1868361156c565b95508019841693508086168417925050509392505050565b5f819050919050565b5f6115ec6115e76115e284610bfe565b6115c9565b610bfe565b9050919050565b5f819050919050565b611605836115d2565b611619611611826115f3565b848454611578565b825550505050565b5f90565b61162d611621565b6116388184846115fc565b505050565b5b8181101561165b576116505f82611625565b60018101905061163e565b5050565b601f8211156116a0576116718161154b565b61167a8461155d565b81016020851015611689578190505b61169d6116958561155d565b83018261163d565b50505b505050565b5f82821c905092915050565b5f6116c05f19846008026116a5565b1980831691505092915050565b5f6116d883836116b1565b9150826002028217905092915050565b6116f182611056565b67ffffffffffffffff81111561170a576117096112bd565b5b611714825461128d565b61171f82828561165f565b5f60209050601f831160018114611750575f841561173e578287015190505b61174885826116cd565b8655506117af565b601f19841661175e8661154b565b5f5b8281101561178557848901518255600182019150602085019450602081019050611760565b868310156117a2578489015161179e601f8916826116b1565b8355505b6001600288020188555050505b50505050505056fea2646970667358221220cf658b33e956dac6b0a62a987d8e0b67c6d91a6008f03d512b6065d5e708588d64736f6c63430008150033",
  "immutableReferences": {},
  "source": "// SPDX-License-Identifier: MIT\n pragma solidity ^0.8.0;\n\ncontract SimpleVoting {\n    // counter enables us to use a mapping\n    // instead of an array for the ballots\n    // this is more gas effiecient\n    uint public counter = 0;\n\n    // the structure of a ballot object\n    struct Ballot {\n        string question;\n        string[] options;\n        uint startTime;\n        uint duration;\n    }\n\n    mapping(uint => Ballot) private _ballots;\n    mapping(uint => mapping(uint => uint)) private _tally;\n    mapping(uint => mapping(address => bool)) public hasVoted;\n\n\n    function createBallot(\n        string calldata _question,\n        string[] calldata _options,\n        uint startTime_,\n        uint duration_\n    ) external {\n        _ballots[counter] = Ballot(_question, _options, startTime_, duration_);\n        counter++;\n    }\n\n    function getBallotByIndex(uint _index) external view returns (Ballot memory ballot) {\n        ballot = _ballots[_index];\n    }\n\n    // function to vote\n    function cast(uint ballotIndex_, uint optionIndex_) external {\n      _tally[ballotIndex_][optionIndex_]++;\n      hasVoted[ballotIndex_][msg.sender] = true;\n    }\n\n    function getTally(uint ballotIndex_, uint optionIndex_) external view returns (uint) {\n      return _tally[ballotIndex_][optionIndex_];\n    }\n\n    function results(uint ballotIndex_) external view returns (uint[] memory) {\n      Ballot memory ballot = _ballots[ballotIndex_];\n      uint len = ballot.options.length;\n      uint[] memory result = new uint[](len);\n      for (uint i = 0; i < len; i++) {\n        result[i] = _tally[ballotIndex_][i];\n      }\n      return result;\n    }\n\n    function winners(uint ballotIndex_) external view returns (bool[] memory) {\n      Ballot memory ballot = _ballots[ballotIndex_];\n      uint len = ballot.options.length;\n      uint[] memory result = new uint[](len);\n      uint max;\n      for (uint i = 0; i < len; i++) {\n          result[i] = _tally[ballotIndex_][i];\n          if (result[i] > max) {\n              max = result[i];\n          }\n      }\n      bool[] memory winner = new bool[](len);\n      for (uint i = 0; i < len; i++) {\n          if (result[i] == max) {\n              winner[i] = true;\n          }\n      }\n      return winner;\n    }\n\n}\n",
  "sourcePath": "/Users/msolanon/Documents/Code/practice/api/contracts/SimpleVoting.sol",
  "compiler": {
    "name": "solc",
    "version": "0.8.21+commit.d9974bed.Emscripten.clang"
  },
  "schemaVersion": "3.4.16",
  "updatedAt": "2024-09-13T03:41:27.208Z",
  "devdoc": {
    "kind": "dev",
    "methods": {},
    "version": 1
  },
  "userdoc": {
    "kind": "user",
    "methods": {},
    "version": 1
  }
}