{
  "contractName": "SimpleVoting",
  "abi": [
    {
      "inputs": [],
      "name": "counter",
      "outputs": [
        {
          "internalType": "uint256",
          "name": "",
          "type": "uint256"
        }
      ],
      "stateMutability": "view",
      "type": "function",
      "constant": true
    },
    {
      "inputs": [
        {
          "internalType": "uint256",
          "name": "",
          "type": "uint256"
        },
        {
          "internalType": "address",
          "name": "",
          "type": "address"
        }
      ],
      "name": "hasVoted",
      "outputs": [
        {
          "internalType": "bool",
          "name": "",
          "type": "bool"
        }
      ],
      "stateMutability": "view",
      "type": "function",
      "constant": true
    },
    {
      "inputs": [
        {
          "internalType": "string",
          "name": "_question",
          "type": "string"
        },
        {
          "internalType": "string[]",
          "name": "_options",
          "type": "string[]"
        },
        {
          "internalType": "uint256",
          "name": "startTime_",
          "type": "uint256"
        },
        {
          "internalType": "uint256",
          "name": "duration_",
          "type": "uint256"
        }
      ],
      "name": "createBallot",
      "outputs": [],
      "stateMutability": "nonpayable",
      "type": "function"
    },
    {
      "inputs": [
        {
          "internalType": "uint256",
          "name": "_index",
          "type": "uint256"
        }
      ],
      "name": "getBallotByIndex",
      "outputs": [
        {
          "components": [
            {
              "internalType": "string",
              "name": "question",
              "type": "string"
            },
            {
              "internalType": "string[]",
              "name": "options",
              "type": "string[]"
            },
            {
              "internalType": "uint256",
              "name": "startTime",
              "type": "uint256"
            },
            {
              "internalType": "uint256",
              "name": "duration",
              "type": "uint256"
            }
          ],
          "internalType": "struct SimpleVoting.Ballot",
          "name": "ballot",
          "type": "tuple"
        }
      ],
      "stateMutability": "view",
      "type": "function",
      "constant": true
    },
    {
      "inputs": [
        {
          "internalType": "uint256",
          "name": "ballotIndex_",
          "type": "uint256"
        },
        {
          "internalType": "uint256",
          "name": "optionIndex_",
          "type": "uint256"
        }
      ],
      "name": "cast",
      "outputs": [],
      "stateMutability": "nonpayable",
      "type": "function"
    },
    {
      "inputs": [
        {
          "internalType": "uint256",
          "name": "ballotIndex_",
          "type": "uint256"
        },
        {
          "internalType": "uint256",
          "name": "optionIndex_",
          "type": "uint256"
        }
      ],
      "name": "getTally",
      "outputs": [
        {
          "internalType": "uint256",
          "name": "",
          "type": "uint256"
        }
      ],
      "stateMutability": "view",
      "type": "function",
      "constant": true
    },
    {
      "inputs": [
        {
          "internalType": "uint256",
          "name": "ballotIndex_",
          "type": "uint256"
        }
      ],
      "name": "results",
      "outputs": [
        {
          "internalType": "uint256[]",
          "name": "",
          "type": "uint256[]"
        }
      ],
      "stateMutability": "view",
      "type": "function",
      "constant": true
    },
    {
      "inputs": [
        {
          "internalType": "uint256",
          "name": "ballotIndex_",
          "type": "uint256"
        }
      ],
      "name": "winners",
      "outputs": [
        {
          "internalType": "bool[]",
          "name": "",
          "type": "bool[]"
        }
      ],
      "stateMutability": "view",
      "type": "function",
      "constant": true
    }
  ],
  "bytecode": "0x60806040526000805534801561001457600080fd5b50611750806100246000396000f3fe608060405234801561001057600080fd5b50600436106100885760003560e01c8063a2fb11751161005b578063a2fb117514610127578063c8b3d5ac14610157578063cdae1fba14610187578063dd2d9cb2146101b757610088565b80631b0c27da1461008d57806343859632146100bd5780635396dd7a146100ed57806361bc221a14610109575b600080fd5b6100a760048036038101906100a2919061104f565b6101d3565b6040516100b49190611366565b60405180910390f35b6100d760048036038101906100d29190611078565b610487565b6040516100e49190611388565b60405180910390f35b61010760048036038101906101029190610fb4565b6104b6565b005b6101116105ab565b60405161011e91906113c5565b60405180910390f35b610141600480360381019061013c919061104f565b6105b1565b60405161014e9190611344565b60405180910390f35b610171600480360381019061016c919061104f565b610a20565b60405161017e91906113a3565b60405180910390f35b6101a1600480360381019061019c91906110b4565b610bcc565b6040516101ae91906113c5565b60405180910390f35b6101d160048036038101906101cc91906110b4565b610bfb565b005b6060600060016000848152602001908152602001600020604051806080016040529081600082018054610205906115d3565b80601f0160208091040260200160405190810160405280929190818152602001828054610231906115d3565b801561027e5780601f106102535761010080835404028352916020019161027e565b820191906000526020600020905b81548152906001019060200180831161026157829003601f168201915b5050505050815260200160018201805480602002602001604051908101604052809291908181526020016000905b828210156103585783829060005260206000200180546102cb906115d3565b80601f01602080910402602001604051908101604052809291908181526020018280546102f7906115d3565b80156103445780601f1061031957610100808354040283529160200191610344565b820191906000526020600020905b81548152906001019060200180831161032757829003601f168201915b5050505050815260200190600101906102ac565b5050505081526020016002820154815260200160038201548152505090506000816020015151905060008167ffffffffffffffff8111156103c2577f4e487b7100000000000000000000000000000000000000000000000000000000600052604160045260246000fd5b6040519080825280602002602001820160405280156103f05781602001602082028036833780820191505090505b50905060005b8281101561047b576002600087815260200190815260200160002060008281526020019081526020016000205482828151811061045c577f4e487b7100000000000000000000000000000000000000000000000000000000600052603260045260246000fd5b602002602001018181525050808061047390611605565b9150506103f6565b50809350505050919050565b60036020528160005260406000206020528060005260406000206000915091509054906101000a900460ff1681565b604051806080016040528087878080601f016020809104026020016040519081016040528093929190818152602001838380828437600081840152601f19601f820116905080830192505050505050508152602001858590610518919061157c565b81526020018381526020018281525060016000805481526020019081526020016000206000820151816000019080519060200190610557929190610ca2565b506020820151816001019080519060200190610574929190610d28565b50604082015181600201556060820151816003015590505060008081548092919061059e90611605565b9190505550505050505050565b60005481565b60606000600160008481526020019081526020016000206040518060800160405290816000820180546105e3906115d3565b80601f016020809104026020016040519081016040528092919081815260200182805461060f906115d3565b801561065c5780601f106106315761010080835404028352916020019161065c565b820191906000526020600020905b81548152906001019060200180831161063f57829003601f168201915b5050505050815260200160018201805480602002602001604051908101604052809291908181526020016000905b828210156107365783829060005260206000200180546106a9906115d3565b80601f01602080910402602001604051908101604052809291908181526020018280546106d5906115d3565b80156107225780601f106106f757610100808354040283529160200191610722565b820191906000526020600020905b81548152906001019060200180831161070557829003601f168201915b50505050508152602001906001019061068a565b5050505081526020016002820154815260200160038201548152505090506000816020015151905060008167ffffffffffffffff8111156107a0577f4e487b7100000000000000000000000000000000000000000000000000000000600052604160045260246000fd5b6040519080825280602002602001820160405280156107ce5781602001602082028036833780820191505090505b509050600080600090505b838110156108ea576002600088815260200190815260200160002060008281526020019081526020016000205483828151811061083f577f4e487b7100000000000000000000000000000000000000000000000000000000600052603260045260246000fd5b60200260200101818152505081838281518110610885577f4e487b7100000000000000000000000000000000000000000000000000000000600052603260045260246000fd5b602002602001015111156108d7578281815181106108cc577f4e487b7100000000000000000000000000000000000000000000000000000000600052603260045260246000fd5b602002602001015191505b80806108e290611605565b9150506107d9565b5060008367ffffffffffffffff81111561092d577f4e487b7100000000000000000000000000000000000000000000000000000000600052604160045260246000fd5b60405190808252806020026020018201604052801561095b5781602001602082028036833780820191505090505b50905060005b84811015610a1257828482815181106109a3577f4e487b7100000000000000000000000000000000000000000000000000000000600052603260045260246000fd5b602002602001015114156109ff5760018282815181106109ec577f4e487b7100000000000000000000000000000000000000000000000000000000600052603260045260246000fd5b6020026020010190151590811515815250505b8080610a0a90611605565b915050610961565b508095505050505050919050565b610a28610d88565b60016000838152602001908152602001600020604051806080016040529081600082018054610a56906115d3565b80601f0160208091040260200160405190810160405280929190818152602001828054610a82906115d3565b8015610acf5780601f10610aa457610100808354040283529160200191610acf565b820191906000526020600020905b815481529060010190602001808311610ab257829003601f168201915b5050505050815260200160018201805480602002602001604051908101604052809291908181526020016000905b82821015610ba9578382906000526020600020018054610b1c906115d3565b80601f0160208091040260200160405190810160405280929190818152602001828054610b48906115d3565b8015610b955780601f10610b6a57610100808354040283529160200191610b95565b820191906000526020600020905b815481529060010190602001808311610b7857829003601f168201915b505050505081526020019060010190610afd565b505050508152602001600282015481526020016003820154815250509050919050565b600060026000848152602001908152602001600020600083815260200190815260200160002054905092915050565b6002600083815260200190815260200160002060008281526020019081526020016000206000815480929190610c3090611605565b919050555060016003600084815260200190815260200160002060003373ffffffffffffffffffffffffffffffffffffffff1673ffffffffffffffffffffffffffffffffffffffff16815260200190815260200160002060006101000a81548160ff0219169083151502179055505050565b828054610cae906115d3565b90600052602060002090601f016020900481019282610cd05760008555610d17565b82601f10610ce957805160ff1916838001178555610d17565b82800160010185558215610d17579182015b82811115610d16578251825591602001919060010190610cfb565b5b509050610d249190610db0565b5090565b828054828255906000526020600020908101928215610d77579160200282015b82811115610d76578251829080519060200190610d66929190610ca2565b5091602001919060010190610d48565b5b509050610d849190610dcd565b5090565b6040518060800160405280606081526020016060815260200160008152602001600081525090565b5b80821115610dc9576000816000905550600101610db1565b5090565b5b80821115610ded5760008181610de49190610df1565b50600101610dce565b5090565b508054610dfd906115d3565b6000825580601f10610e0f5750610e2e565b601f016020900490600052602060002090810190610e2d9190610db0565b5b50565b6000610e44610e3f84611411565b6113e0565b9050808382526020820190508260005b85811015610e845781358501610e6a8882610f75565b845260208401935060208301925050600181019050610e54565b5050509392505050565b6000610ea1610e9c8461143d565b6113e0565b905082815260208101848484011115610eb957600080fd5b610ec4848285611591565b509392505050565b600081359050610edb816116ec565b92915050565b60008083601f840112610ef357600080fd5b8235905067ffffffffffffffff811115610f0c57600080fd5b602083019150836020820283011115610f2457600080fd5b9250929050565b60008083601f840112610f3d57600080fd5b8235905067ffffffffffffffff811115610f5657600080fd5b602083019150836001820283011115610f6e57600080fd5b9250929050565b600082601f830112610f8657600080fd5b8135610f96848260208601610e8e565b91505092915050565b600081359050610fae81611703565b92915050565b60008060008060008060808789031215610fcd57600080fd5b600087013567ffffffffffffffff811115610fe757600080fd5b610ff389828a01610f2b565b9650965050602087013567ffffffffffffffff81111561101257600080fd5b61101e89828a01610ee1565b9450945050604061103189828a01610f9f565b925050606061104289828a01610f9f565b9150509295509295509295565b60006020828403121561106157600080fd5b600061106f84828501610f9f565b91505092915050565b6000806040838503121561108b57600080fd5b600061109985828601610f9f565b92505060206110aa85828601610ecc565b9150509250929050565b600080604083850312156110c757600080fd5b60006110d585828601610f9f565b92505060206110e685828601610f9f565b9150509250929050565b60006110fc8383611265565b60208301905092915050565b60006111148383611283565b905092915050565b60006111288383611326565b60208301905092915050565b600061113f8261149d565b61114981856114f0565b93506111548361146d565b8060005b8381101561118557815161116c88826110f0565b9750611177836114c9565b925050600181019050611158565b5085935050505092915050565b600061119d826114a8565b6111a78185611501565b9350836020820285016111b98561147d565b8060005b858110156111f557848403895281516111d68582611108565b94506111e1836114d6565b925060208a019950506001810190506111bd565b50829750879550505050505092915050565b6000611212826114b3565b61121c8185611512565b93506112278361148d565b8060005b8381101561125857815161123f888261111c565b975061124a836114e3565b92505060018101905061122b565b5085935050505092915050565b61126e81611546565b82525050565b61127d81611546565b82525050565b600061128e826114be565b6112988185611523565b93506112a88185602086016115a0565b6112b1816116db565b840191505092915050565b600060808301600083015184820360008601526112d98282611283565b915050602083015184820360208601526112f38282611192565b91505060408301516113086040860182611326565b50606083015161131b6060860182611326565b508091505092915050565b61132f81611572565b82525050565b61133e81611572565b82525050565b6000602082019050818103600083015261135e8184611134565b905092915050565b600060208201905081810360008301526113808184611207565b905092915050565b600060208201905061139d6000830184611274565b92915050565b600060208201905081810360008301526113bd81846112bc565b905092915050565b60006020820190506113da6000830184611335565b92915050565b6000604051905081810181811067ffffffffffffffff82111715611407576114066116ac565b5b8060405250919050565b600067ffffffffffffffff82111561142c5761142b6116ac565b5b602082029050602081019050919050565b600067ffffffffffffffff821115611458576114576116ac565b5b601f19601f8301169050602081019050919050565b6000819050602082019050919050565b6000819050602082019050919050565b6000819050602082019050919050565b600081519050919050565b600081519050919050565b600081519050919050565b600081519050919050565b6000602082019050919050565b6000602082019050919050565b6000602082019050919050565b600082825260208201905092915050565b600082825260208201905092915050565b600082825260208201905092915050565b600082825260208201905092915050565b600061153f82611552565b9050919050565b60008115159050919050565b600073ffffffffffffffffffffffffffffffffffffffff82169050919050565b6000819050919050565b6000611589368484610e31565b905092915050565b82818337600083830152505050565b60005b838110156115be5780820151818401526020810190506115a3565b838111156115cd576000848401525b50505050565b600060028204905060018216806115eb57607f821691505b602082108114156115ff576115fe61167d565b5b50919050565b600061161082611572565b91507fffffffffffffffffffffffffffffffffffffffffffffffffffffffffffffffff8214156116435761164261164e565b5b600182019050919050565b7f4e487b7100000000000000000000000000000000000000000000000000000000600052601160045260246000fd5b7f4e487b7100000000000000000000000000000000000000000000000000000000600052602260045260246000fd5b7f4e487b7100000000000000000000000000000000000000000000000000000000600052604160045260246000fd5b6000601f19601f8301169050919050565b6116f581611534565b811461170057600080fd5b50565b61170c81611572565b811461171757600080fd5b5056fea2646970667358221220cd3c0a6c4e49daf8ad73df843e7697207b381218270ca3a4b355ee502ba43d3d64736f6c63430008000033",
  "immutableReferences": {},
  "source": "// SPDX-License-Identifier: MIT\n pragma solidity ^0.8.0;\n\ncontract SimpleVoting {\n    // counter enables us to use a mapping\n    // instead of an array for the ballots\n    // this is more gas effiecient\n    uint public counter = 0;\n\n    // the structure of a ballot object\n    struct Ballot {\n        string question;\n        string[] options;\n        uint startTime;\n        uint duration;\n    }\n\n    mapping(uint => Ballot) private _ballots;\n    mapping(uint => mapping(uint => uint)) private _tally;\n    mapping(uint => mapping(address => bool)) public hasVoted;\n\n\n    function createBallot(\n        string calldata _question,\n        string[] calldata _options,\n        uint startTime_,\n        uint duration_\n    ) external {\n        _ballots[counter] = Ballot(_question, _options, startTime_, duration_);\n        counter++;\n    }\n\n    function getBallotByIndex(uint _index) external view returns (Ballot memory ballot) {\n        ballot = _ballots[_index];\n    }\n\n    // function to vote\n    function cast(uint ballotIndex_, uint optionIndex_) external {\n      _tally[ballotIndex_][optionIndex_]++;\n      hasVoted[ballotIndex_][msg.sender] = true;\n    }\n\n    function getTally(uint ballotIndex_, uint optionIndex_) external view returns (uint) {\n      return _tally[ballotIndex_][optionIndex_];\n    }\n\n    function results(uint ballotIndex_) external view returns (uint[] memory) {\n      Ballot memory ballot = _ballots[ballotIndex_];\n      uint len = ballot.options.length;\n      uint[] memory result = new uint[](len);\n      for (uint i = 0; i < len; i++) {\n        result[i] = _tally[ballotIndex_][i];\n      }\n      return result;\n    }\n\n    function winners(uint ballotIndex_) external view returns (bool[] memory) {\n      Ballot memory ballot = _ballots[ballotIndex_];\n      uint len = ballot.options.length;\n      uint[] memory result = new uint[](len);\n      uint max;\n      for (uint i = 0; i < len; i++) {\n          result[i] = _tally[ballotIndex_][i];\n          if (result[i] > max) {\n              max = result[i];\n          }\n      }\n      bool[] memory winner = new bool[](len);\n      for (uint i = 0; i < len; i++) {\n          if (result[i] == max) {\n              winner[i] = true;\n          }\n      }\n      return winner;\n    }\n\n}\n",
  "sourcePath": "/Users/msolanon/Documents/Code/practice/api/src/contracts/SimpleVoting.sol",
  "compiler": {
    "name": "solc",
    "version": "0.8.0+commit.c7dfd78e.Emscripten.clang"
  },
  "schemaVersion": "3.4.16",
  "updatedAt": "2024-09-13T03:48:15.077Z",
  "networkType": "ethereum",
  "devdoc": {
    "kind": "dev",
    "methods": {},
    "version": 1
  },
  "userdoc": {
    "kind": "user",
    "methods": {},
    "version": 1
  }
}